Archive member included to satisfy reference by file (symbol)

/home/ssaa/Ac6SWB/SystemWorkbench/plugins/fr.ac6.mcu.externaltools.arm-none.linux64_1.17.0.201812190825/tools/compiler/bin/../lib/gcc/arm-none-eabi/7.3.1/thumb/v7e-m/fpv4-sp/hard/libgcc.a(_arm_addsubdf3.o)
                              src/model_gen.o (__aeabi_ui2d)
/home/ssaa/Ac6SWB/SystemWorkbench/plugins/fr.ac6.mcu.externaltools.arm-none.linux64_1.17.0.201812190825/tools/compiler/bin/../lib/gcc/arm-none-eabi/7.3.1/thumb/v7e-m/fpv4-sp/hard/libgcc.a(_arm_muldivdf3.o)
                              src/model_gen.o (__aeabi_dmul)
/home/ssaa/Ac6SWB/SystemWorkbench/plugins/fr.ac6.mcu.externaltools.arm-none.linux64_1.17.0.201812190825/tools/compiler/bin/../lib/gcc/arm-none-eabi/7.3.1/thumb/v7e-m/fpv4-sp/hard/libgcc.a(_aeabi_uldivmod.o)
                              HAL_Driver/Src/stm32f4xx_hal_rcc.o (__aeabi_uldivmod)
/home/ssaa/Ac6SWB/SystemWorkbench/plugins/fr.ac6.mcu.externaltools.arm-none.linux64_1.17.0.201812190825/tools/compiler/bin/../lib/gcc/arm-none-eabi/7.3.1/thumb/v7e-m/fpv4-sp/hard/libgcc.a(_udivmoddi4.o)
                              /home/ssaa/Ac6SWB/SystemWorkbench/plugins/fr.ac6.mcu.externaltools.arm-none.linux64_1.17.0.201812190825/tools/compiler/bin/../lib/gcc/arm-none-eabi/7.3.1/thumb/v7e-m/fpv4-sp/hard/libgcc.a(_aeabi_uldivmod.o) (__udivmoddi4)
/home/ssaa/Ac6SWB/SystemWorkbench/plugins/fr.ac6.mcu.externaltools.arm-none.linux64_1.17.0.201812190825/tools/compiler/bin/../lib/gcc/arm-none-eabi/7.3.1/thumb/v7e-m/fpv4-sp/hard/libgcc.a(_dvmd_tls.o)
                              /home/ssaa/Ac6SWB/SystemWorkbench/plugins/fr.ac6.mcu.externaltools.arm-none.linux64_1.17.0.201812190825/tools/compiler/bin/../lib/gcc/arm-none-eabi/7.3.1/thumb/v7e-m/fpv4-sp/hard/libgcc.a(_aeabi_uldivmod.o) (__aeabi_ldiv0)
/home/ssaa/Ac6SWB/SystemWorkbench/plugins/fr.ac6.mcu.externaltools.arm-none.linux64_1.17.0.201812190825/tools/compiler/bin/../lib/gcc/arm-none-eabi/7.3.1/../../../../arm-none-eabi/lib/thumb/v7e-m/fpv4-sp/hard/libc.a(lib_a-errno.o)
                              src/syscalls.o (__errno)
/home/ssaa/Ac6SWB/SystemWorkbench/plugins/fr.ac6.mcu.externaltools.arm-none.linux64_1.17.0.201812190825/tools/compiler/bin/../lib/gcc/arm-none-eabi/7.3.1/../../../../arm-none-eabi/lib/thumb/v7e-m/fpv4-sp/hard/libc.a(lib_a-exit.o)
                              /home/ssaa/Ac6SWB/SystemWorkbench/plugins/fr.ac6.mcu.externaltools.arm-none.linux64_1.17.0.201812190825/tools/compiler/bin/../lib/gcc/arm-none-eabi/7.3.1/../../../../arm-none-eabi/lib/thumb/v7e-m/fpv4-sp/hard/crt0.o (exit)
/home/ssaa/Ac6SWB/SystemWorkbench/plugins/fr.ac6.mcu.externaltools.arm-none.linux64_1.17.0.201812190825/tools/compiler/bin/../lib/gcc/arm-none-eabi/7.3.1/../../../../arm-none-eabi/lib/thumb/v7e-m/fpv4-sp/hard/libc.a(lib_a-impure.o)
                              /home/ssaa/Ac6SWB/SystemWorkbench/plugins/fr.ac6.mcu.externaltools.arm-none.linux64_1.17.0.201812190825/tools/compiler/bin/../lib/gcc/arm-none-eabi/7.3.1/../../../../arm-none-eabi/lib/thumb/v7e-m/fpv4-sp/hard/libc.a(lib_a-exit.o) (_global_impure_ptr)
/home/ssaa/Ac6SWB/SystemWorkbench/plugins/fr.ac6.mcu.externaltools.arm-none.linux64_1.17.0.201812190825/tools/compiler/bin/../lib/gcc/arm-none-eabi/7.3.1/../../../../arm-none-eabi/lib/thumb/v7e-m/fpv4-sp/hard/libc.a(lib_a-init.o)
                              /home/ssaa/Ac6SWB/SystemWorkbench/plugins/fr.ac6.mcu.externaltools.arm-none.linux64_1.17.0.201812190825/tools/compiler/bin/../lib/gcc/arm-none-eabi/7.3.1/../../../../arm-none-eabi/lib/thumb/v7e-m/fpv4-sp/hard/crt0.o (__libc_init_array)
/home/ssaa/Ac6SWB/SystemWorkbench/plugins/fr.ac6.mcu.externaltools.arm-none.linux64_1.17.0.201812190825/tools/compiler/bin/../lib/gcc/arm-none-eabi/7.3.1/../../../../arm-none-eabi/lib/thumb/v7e-m/fpv4-sp/hard/libc.a(lib_a-memset.o)
                              /home/ssaa/Ac6SWB/SystemWorkbench/plugins/fr.ac6.mcu.externaltools.arm-none.linux64_1.17.0.201812190825/tools/compiler/bin/../lib/gcc/arm-none-eabi/7.3.1/../../../../arm-none-eabi/lib/thumb/v7e-m/fpv4-sp/hard/crt0.o (memset)
/home/ssaa/Ac6SWB/SystemWorkbench/plugins/fr.ac6.mcu.externaltools.arm-none.linux64_1.17.0.201812190825/tools/compiler/bin/../lib/gcc/arm-none-eabi/7.3.1/../../../../arm-none-eabi/lib/thumb/v7e-m/fpv4-sp/hard/libc.a(lib_a-__call_atexit.o)
                              /home/ssaa/Ac6SWB/SystemWorkbench/plugins/fr.ac6.mcu.externaltools.arm-none.linux64_1.17.0.201812190825/tools/compiler/bin/../lib/gcc/arm-none-eabi/7.3.1/../../../../arm-none-eabi/lib/thumb/v7e-m/fpv4-sp/hard/libc.a(lib_a-exit.o) (__call_exitprocs)
/home/ssaa/Ac6SWB/SystemWorkbench/plugins/fr.ac6.mcu.externaltools.arm-none.linux64_1.17.0.201812190825/tools/compiler/bin/../lib/gcc/arm-none-eabi/7.3.1/../../../../arm-none-eabi/lib/thumb/v7e-m/fpv4-sp/hard/libc.a(lib_a-atexit.o)
                              /home/ssaa/Ac6SWB/SystemWorkbench/plugins/fr.ac6.mcu.externaltools.arm-none.linux64_1.17.0.201812190825/tools/compiler/bin/../lib/gcc/arm-none-eabi/7.3.1/../../../../arm-none-eabi/lib/thumb/v7e-m/fpv4-sp/hard/libc.a(lib_a-__call_atexit.o) (atexit)
/home/ssaa/Ac6SWB/SystemWorkbench/plugins/fr.ac6.mcu.externaltools.arm-none.linux64_1.17.0.201812190825/tools/compiler/bin/../lib/gcc/arm-none-eabi/7.3.1/../../../../arm-none-eabi/lib/thumb/v7e-m/fpv4-sp/hard/libc.a(lib_a-fini.o)
                              /home/ssaa/Ac6SWB/SystemWorkbench/plugins/fr.ac6.mcu.externaltools.arm-none.linux64_1.17.0.201812190825/tools/compiler/bin/../lib/gcc/arm-none-eabi/7.3.1/../../../../arm-none-eabi/lib/thumb/v7e-m/fpv4-sp/hard/libc.a(lib_a-__call_atexit.o) (__libc_fini_array)
/home/ssaa/Ac6SWB/SystemWorkbench/plugins/fr.ac6.mcu.externaltools.arm-none.linux64_1.17.0.201812190825/tools/compiler/bin/../lib/gcc/arm-none-eabi/7.3.1/../../../../arm-none-eabi/lib/thumb/v7e-m/fpv4-sp/hard/libc.a(lib_a-lock.o)
                              /home/ssaa/Ac6SWB/SystemWorkbench/plugins/fr.ac6.mcu.externaltools.arm-none.linux64_1.17.0.201812190825/tools/compiler/bin/../lib/gcc/arm-none-eabi/7.3.1/../../../../arm-none-eabi/lib/thumb/v7e-m/fpv4-sp/hard/libc.a(lib_a-__call_atexit.o) (__retarget_lock_acquire_recursive)
/home/ssaa/Ac6SWB/SystemWorkbench/plugins/fr.ac6.mcu.externaltools.arm-none.linux64_1.17.0.201812190825/tools/compiler/bin/../lib/gcc/arm-none-eabi/7.3.1/../../../../arm-none-eabi/lib/thumb/v7e-m/fpv4-sp/hard/libc.a(lib_a-__atexit.o)
                              /home/ssaa/Ac6SWB/SystemWorkbench/plugins/fr.ac6.mcu.externaltools.arm-none.linux64_1.17.0.201812190825/tools/compiler/bin/../lib/gcc/arm-none-eabi/7.3.1/../../../../arm-none-eabi/lib/thumb/v7e-m/fpv4-sp/hard/libc.a(lib_a-atexit.o) (__register_exitproc)

Allocating common symbols
Common symbol       size              file

__lock___atexit_recursive_mutex
                    0x1               /home/ssaa/Ac6SWB/SystemWorkbench/plugins/fr.ac6.mcu.externaltools.arm-none.linux64_1.17.0.201812190825/tools/compiler/bin/../lib/gcc/arm-none-eabi/7.3.1/../../../../arm-none-eabi/lib/thumb/v7e-m/fpv4-sp/hard/libc.a(lib_a-lock.o)
__lock___arc4random_mutex
                    0x1               /home/ssaa/Ac6SWB/SystemWorkbench/plugins/fr.ac6.mcu.externaltools.arm-none.linux64_1.17.0.201812190825/tools/compiler/bin/../lib/gcc/arm-none-eabi/7.3.1/../../../../arm-none-eabi/lib/thumb/v7e-m/fpv4-sp/hard/libc.a(lib_a-lock.o)
PDM_FilterConfig    0xc               Utilities/STM32F4-Discovery/stm32f4_discovery_audio.o
uwTick              0x4               HAL_Driver/Src/stm32f4xx_hal.o
pFlash              0x20              HAL_Driver/Src/stm32f4xx_hal_flash.o
__lock___env_recursive_mutex
                    0x1               /home/ssaa/Ac6SWB/SystemWorkbench/plugins/fr.ac6.mcu.externaltools.arm-none.linux64_1.17.0.201812190825/tools/compiler/bin/../lib/gcc/arm-none-eabi/7.3.1/../../../../arm-none-eabi/lib/thumb/v7e-m/fpv4-sp/hard/libc.a(lib_a-lock.o)
__lock___sinit_recursive_mutex
                    0x1               /home/ssaa/Ac6SWB/SystemWorkbench/plugins/fr.ac6.mcu.externaltools.arm-none.linux64_1.17.0.201812190825/tools/compiler/bin/../lib/gcc/arm-none-eabi/7.3.1/../../../../arm-none-eabi/lib/thumb/v7e-m/fpv4-sp/hard/libc.a(lib_a-lock.o)
__lock___malloc_recursive_mutex
                    0x1               /home/ssaa/Ac6SWB/SystemWorkbench/plugins/fr.ac6.mcu.externaltools.arm-none.linux64_1.17.0.201812190825/tools/compiler/bin/../lib/gcc/arm-none-eabi/7.3.1/../../../../arm-none-eabi/lib/thumb/v7e-m/fpv4-sp/hard/libc.a(lib_a-lock.o)
PDM_FilterHandler   0x98              Utilities/STM32F4-Discovery/stm32f4_discovery_audio.o
hAudioOutI2s        0x48              Utilities/STM32F4-Discovery/stm32f4_discovery_audio.o
aBufferTS           0xa               Utilities/Components/exc7200/exc7200.o
__lock___at_quick_exit_mutex
                    0x1               /home/ssaa/Ac6SWB/SystemWorkbench/plugins/fr.ac6.mcu.externaltools.arm-none.linux64_1.17.0.201812190825/tools/compiler/bin/../lib/gcc/arm-none-eabi/7.3.1/../../../../arm-none-eabi/lib/thumb/v7e-m/fpv4-sp/hard/libc.a(lib_a-lock.o)
__lock___dd_hash_mutex
                    0x1               /home/ssaa/Ac6SWB/SystemWorkbench/plugins/fr.ac6.mcu.externaltools.arm-none.linux64_1.17.0.201812190825/tools/compiler/bin/../lib/gcc/arm-none-eabi/7.3.1/../../../../arm-none-eabi/lib/thumb/v7e-m/fpv4-sp/hard/libc.a(lib_a-lock.o)
__lock___tz_mutex   0x1               /home/ssaa/Ac6SWB/SystemWorkbench/plugins/fr.ac6.mcu.externaltools.arm-none.linux64_1.17.0.201812190825/tools/compiler/bin/../lib/gcc/arm-none-eabi/7.3.1/../../../../arm-none-eabi/lib/thumb/v7e-m/fpv4-sp/hard/libc.a(lib_a-lock.o)
hAudioInI2s         0x48              Utilities/STM32F4-Discovery/stm32f4_discovery_audio.o
__lock___sfp_recursive_mutex
                    0x1               /home/ssaa/Ac6SWB/SystemWorkbench/plugins/fr.ac6.mcu.externaltools.arm-none.linux64_1.17.0.201812190825/tools/compiler/bin/../lib/gcc/arm-none-eabi/7.3.1/../../../../arm-none-eabi/lib/thumb/v7e-m/fpv4-sp/hard/libc.a(lib_a-lock.o)

Discarded input sections

 .text          0x0000000000000000        0x0 /home/ssaa/Ac6SWB/SystemWorkbench/plugins/fr.ac6.mcu.externaltools.arm-none.linux64_1.17.0.201812190825/tools/compiler/bin/../lib/gcc/arm-none-eabi/7.3.1/thumb/v7e-m/fpv4-sp/hard/crti.o
 .data          0x0000000000000000        0x0 /home/ssaa/Ac6SWB/SystemWorkbench/plugins/fr.ac6.mcu.externaltools.arm-none.linux64_1.17.0.201812190825/tools/compiler/bin/../lib/gcc/arm-none-eabi/7.3.1/thumb/v7e-m/fpv4-sp/hard/crti.o
 .bss           0x0000000000000000        0x0 /home/ssaa/Ac6SWB/SystemWorkbench/plugins/fr.ac6.mcu.externaltools.arm-none.linux64_1.17.0.201812190825/tools/compiler/bin/../lib/gcc/arm-none-eabi/7.3.1/thumb/v7e-m/fpv4-sp/hard/crti.o
 .data          0x0000000000000000        0x4 /home/ssaa/Ac6SWB/SystemWorkbench/plugins/fr.ac6.mcu.externaltools.arm-none.linux64_1.17.0.201812190825/tools/compiler/bin/../lib/gcc/arm-none-eabi/7.3.1/thumb/v7e-m/fpv4-sp/hard/crtbegin.o
 .text          0x0000000000000000       0x74 /home/ssaa/Ac6SWB/SystemWorkbench/plugins/fr.ac6.mcu.externaltools.arm-none.linux64_1.17.0.201812190825/tools/compiler/bin/../lib/gcc/arm-none-eabi/7.3.1/../../../../arm-none-eabi/lib/thumb/v7e-m/fpv4-sp/hard/crt0.o
 .data          0x0000000000000000        0x0 /home/ssaa/Ac6SWB/SystemWorkbench/plugins/fr.ac6.mcu.externaltools.arm-none.linux64_1.17.0.201812190825/tools/compiler/bin/../lib/gcc/arm-none-eabi/7.3.1/../../../../arm-none-eabi/lib/thumb/v7e-m/fpv4-sp/hard/crt0.o
 .bss           0x0000000000000000        0x0 /home/ssaa/Ac6SWB/SystemWorkbench/plugins/fr.ac6.mcu.externaltools.arm-none.linux64_1.17.0.201812190825/tools/compiler/bin/../lib/gcc/arm-none-eabi/7.3.1/../../../../arm-none-eabi/lib/thumb/v7e-m/fpv4-sp/hard/crt0.o
 .ARM.extab     0x0000000000000000        0x0 /home/ssaa/Ac6SWB/SystemWorkbench/plugins/fr.ac6.mcu.externaltools.arm-none.linux64_1.17.0.201812190825/tools/compiler/bin/../lib/gcc/arm-none-eabi/7.3.1/../../../../arm-none-eabi/lib/thumb/v7e-m/fpv4-sp/hard/crt0.o
 .ARM.exidx     0x0000000000000000        0x8 /home/ssaa/Ac6SWB/SystemWorkbench/plugins/fr.ac6.mcu.externaltools.arm-none.linux64_1.17.0.201812190825/tools/compiler/bin/../lib/gcc/arm-none-eabi/7.3.1/../../../../arm-none-eabi/lib/thumb/v7e-m/fpv4-sp/hard/crt0.o
 .ARM.attributes
                0x0000000000000000       0x20 /home/ssaa/Ac6SWB/SystemWorkbench/plugins/fr.ac6.mcu.externaltools.arm-none.linux64_1.17.0.201812190825/tools/compiler/bin/../lib/gcc/arm-none-eabi/7.3.1/../../../../arm-none-eabi/lib/thumb/v7e-m/fpv4-sp/hard/crt0.o
 .group         0x0000000000000000        0xc HAL_Driver/Src/Legacy/stm32f4xx_hal_can.o
 .group         0x0000000000000000        0xc HAL_Driver/Src/Legacy/stm32f4xx_hal_can.o
 .group         0x0000000000000000        0xc HAL_Driver/Src/Legacy/stm32f4xx_hal_can.o
 .group         0x0000000000000000        0xc HAL_Driver/Src/Legacy/stm32f4xx_hal_can.o
 .group         0x0000000000000000        0xc HAL_Driver/Src/Legacy/stm32f4xx_hal_can.o
 .group         0x0000000000000000        0xc HAL_Driver/Src/Legacy/stm32f4xx_hal_can.o
 .group         0x0000000000000000        0xc HAL_Driver/Src/Legacy/stm32f4xx_hal_can.o
Memory Configuration

Name             Origin             Length             Attributes
FLASH            0x0000000008000000 0x0000000000100000 xr
RAM              0x0000000020000000 0x0000000000030000 xrw
MEMORY_B1        0x0000000060000000 0x0000000000000000 xr
*default*        0x0000000000000000 0xffffffffffffffff

Linker script and memory map

LOAD /home/ssaa/Ac6SWB/SystemWorkbench/plugins/fr.ac6.mcu.externaltools.arm-none.linux64_1.17.0.201812190825/tools/compiler/bin/../lib/gcc/arm-none-eabi/7.3.1/thumb/v7e-m/fpv4-sp/hard/crti.o
LOAD /home/ssaa/Ac6SWB/SystemWorkbench/plugins/fr.ac6.mcu.externaltools.arm-none.linux64_1.17.0.201812190825/tools/compiler/bin/../lib/gcc/arm-none-eabi/7.3.1/thumb/v7e-m/fpv4-sp/hard/crtbegin.o
LOAD /home/ssaa/Ac6SWB/SystemWorkbench/plugins/fr.ac6.mcu.externaltools.arm-none.linux64_1.17.0.201812190825/tools/compiler/bin/../lib/gcc/arm-none-eabi/7.3.1/../../../../arm-none-eabi/lib/thumb/v7e-m/fpv4-sp/hard/crt0.o
LOAD HAL_Driver/Src/Legacy/stm32f4xx_hal_can.o
LOAD HAL_Driver/Src/stm32f4xx_hal.o
LOAD HAL_Driver/Src/stm32f4xx_hal_adc.o
LOAD HAL_Driver/Src/stm32f4xx_hal_adc_ex.o
LOAD HAL_Driver/Src/stm32f4xx_hal_can.o
LOAD HAL_Driver/Src/stm32f4xx_hal_cec.o
LOAD HAL_Driver/Src/stm32f4xx_hal_cortex.o
LOAD HAL_Driver/Src/stm32f4xx_hal_crc.o
LOAD HAL_Driver/Src/stm32f4xx_hal_cryp.o
LOAD HAL_Driver/Src/stm32f4xx_hal_cryp_ex.o
LOAD HAL_Driver/Src/stm32f4xx_hal_dac.o
LOAD HAL_Driver/Src/stm32f4xx_hal_dac_ex.o
LOAD HAL_Driver/Src/stm32f4xx_hal_dcmi.o
LOAD HAL_Driver/Src/stm32f4xx_hal_dcmi_ex.o
LOAD HAL_Driver/Src/stm32f4xx_hal_dfsdm.o
LOAD HAL_Driver/Src/stm32f4xx_hal_dma.o
LOAD HAL_Driver/Src/stm32f4xx_hal_dma2d.o
LOAD HAL_Driver/Src/stm32f4xx_hal_dma_ex.o
LOAD HAL_Driver/Src/stm32f4xx_hal_dsi.o
LOAD HAL_Driver/Src/stm32f4xx_hal_eth.o
LOAD HAL_Driver/Src/stm32f4xx_hal_exti.o
LOAD HAL_Driver/Src/stm32f4xx_hal_flash.o
LOAD HAL_Driver/Src/stm32f4xx_hal_flash_ex.o
LOAD HAL_Driver/Src/stm32f4xx_hal_flash_ramfunc.o
LOAD HAL_Driver/Src/stm32f4xx_hal_fmpi2c.o
LOAD HAL_Driver/Src/stm32f4xx_hal_fmpi2c_ex.o
LOAD HAL_Driver/Src/stm32f4xx_hal_gpio.o
LOAD HAL_Driver/Src/stm32f4xx_hal_hash.o
LOAD HAL_Driver/Src/stm32f4xx_hal_hash_ex.o
LOAD HAL_Driver/Src/stm32f4xx_hal_hcd.o
LOAD HAL_Driver/Src/stm32f4xx_hal_i2c.o
LOAD HAL_Driver/Src/stm32f4xx_hal_i2c_ex.o
LOAD HAL_Driver/Src/stm32f4xx_hal_i2s.o
LOAD HAL_Driver/Src/stm32f4xx_hal_i2s_ex.o
LOAD HAL_Driver/Src/stm32f4xx_hal_irda.o
LOAD HAL_Driver/Src/stm32f4xx_hal_iwdg.o
LOAD HAL_Driver/Src/stm32f4xx_hal_lptim.o
LOAD HAL_Driver/Src/stm32f4xx_hal_ltdc.o
LOAD HAL_Driver/Src/stm32f4xx_hal_ltdc_ex.o
LOAD HAL_Driver/Src/stm32f4xx_hal_mmc.o
LOAD HAL_Driver/Src/stm32f4xx_hal_msp_template.o
LOAD HAL_Driver/Src/stm32f4xx_hal_nand.o
LOAD HAL_Driver/Src/stm32f4xx_hal_nor.o
LOAD HAL_Driver/Src/stm32f4xx_hal_pccard.o
LOAD HAL_Driver/Src/stm32f4xx_hal_pcd.o
LOAD HAL_Driver/Src/stm32f4xx_hal_pcd_ex.o
LOAD HAL_Driver/Src/stm32f4xx_hal_pwr.o
LOAD HAL_Driver/Src/stm32f4xx_hal_pwr_ex.o
LOAD HAL_Driver/Src/stm32f4xx_hal_qspi.o
LOAD HAL_Driver/Src/stm32f4xx_hal_rcc.o
LOAD HAL_Driver/Src/stm32f4xx_hal_rcc_ex.o
LOAD HAL_Driver/Src/stm32f4xx_hal_rng.o
LOAD HAL_Driver/Src/stm32f4xx_hal_rtc.o
LOAD HAL_Driver/Src/stm32f4xx_hal_rtc_ex.o
LOAD HAL_Driver/Src/stm32f4xx_hal_sai.o
LOAD HAL_Driver/Src/stm32f4xx_hal_sai_ex.o
LOAD HAL_Driver/Src/stm32f4xx_hal_sd.o
LOAD HAL_Driver/Src/stm32f4xx_hal_sdram.o
LOAD HAL_Driver/Src/stm32f4xx_hal_smartcard.o
LOAD HAL_Driver/Src/stm32f4xx_hal_smbus.o
LOAD HAL_Driver/Src/stm32f4xx_hal_spdifrx.o
LOAD HAL_Driver/Src/stm32f4xx_hal_spi.o
LOAD HAL_Driver/Src/stm32f4xx_hal_sram.o
LOAD HAL_Driver/Src/stm32f4xx_hal_tim.o
LOAD HAL_Driver/Src/stm32f4xx_hal_tim_ex.o
LOAD HAL_Driver/Src/stm32f4xx_hal_uart.o
LOAD HAL_Driver/Src/stm32f4xx_hal_usart.o
LOAD HAL_Driver/Src/stm32f4xx_hal_wwdg.o
LOAD HAL_Driver/Src/stm32f4xx_ll_adc.o
LOAD HAL_Driver/Src/stm32f4xx_ll_crc.o
LOAD HAL_Driver/Src/stm32f4xx_ll_dac.o
LOAD HAL_Driver/Src/stm32f4xx_ll_dma.o
LOAD HAL_Driver/Src/stm32f4xx_ll_dma2d.o
LOAD HAL_Driver/Src/stm32f4xx_ll_exti.o
LOAD HAL_Driver/Src/stm32f4xx_ll_fmc.o
LOAD HAL_Driver/Src/stm32f4xx_ll_fsmc.o
LOAD HAL_Driver/Src/stm32f4xx_ll_gpio.o
LOAD HAL_Driver/Src/stm32f4xx_ll_i2c.o
LOAD HAL_Driver/Src/stm32f4xx_ll_lptim.o
LOAD HAL_Driver/Src/stm32f4xx_ll_pwr.o
LOAD HAL_Driver/Src/stm32f4xx_ll_rcc.o
LOAD HAL_Driver/Src/stm32f4xx_ll_rng.o
LOAD HAL_Driver/Src/stm32f4xx_ll_rtc.o
LOAD HAL_Driver/Src/stm32f4xx_ll_sdmmc.o
LOAD HAL_Driver/Src/stm32f4xx_ll_spi.o
LOAD HAL_Driver/Src/stm32f4xx_ll_tim.o
LOAD HAL_Driver/Src/stm32f4xx_ll_usart.o
LOAD HAL_Driver/Src/stm32f4xx_ll_usb.o
LOAD HAL_Driver/Src/stm32f4xx_ll_utils.o
LOAD Utilities/Components/cs43l22/cs43l22.o
LOAD Utilities/Components/exc7200/exc7200.o
LOAD Utilities/Components/ft6x06/ft6x06.o
LOAD Utilities/Components/ili9325/ili9325.o
LOAD Utilities/Components/ili9341/ili9341.o
LOAD Utilities/Components/l3gd20/l3gd20.o
LOAD Utilities/Components/lis302dl/lis302dl.o
LOAD Utilities/Components/lis3dsh/lis3dsh.o
LOAD Utilities/Components/ls016b8uy/ls016b8uy.o
LOAD Utilities/Components/lsm303dlhc/lsm303dlhc.o
LOAD Utilities/Components/mfxstm32l152/mfxstm32l152.o
LOAD Utilities/Components/otm8009a/otm8009a.o
LOAD Utilities/Components/ov2640/ov2640.o
LOAD Utilities/Components/s5k5cag/s5k5cag.o
LOAD Utilities/Components/st7735/st7735.o
LOAD Utilities/Components/st7789h2/st7789h2.o
LOAD Utilities/Components/stmpe1600/stmpe1600.o
LOAD Utilities/Components/stmpe811/stmpe811.o
LOAD Utilities/Components/ts3510/ts3510.o
LOAD Utilities/Components/wm8994/wm8994.o
LOAD Utilities/STM32F4-Discovery/stm32f4_discovery.o
LOAD Utilities/STM32F4-Discovery/stm32f4_discovery_accelerometer.o
LOAD Utilities/STM32F4-Discovery/stm32f4_discovery_audio.o
LOAD src/drive_signal.o
LOAD src/main.o
LOAD src/model_gen.o
LOAD src/rand.o
LOAD src/stm32f4xx_it.o
LOAD src/syscalls.o
LOAD src/system_stm32f4xx.o
LOAD startup/startup_stm32f407xx.o
LOAD /home/ssaa/Ac6SWB/SystemWorkbench/plugins/fr.ac6.mcu.externaltools.arm-none.linux64_1.17.0.201812190825/tools/compiler/bin/../lib/gcc/arm-none-eabi/7.3.1/../../../../arm-none-eabi/lib/thumb/v7e-m/fpv4-sp/hard/libm.a
START GROUP
LOAD /home/ssaa/Ac6SWB/SystemWorkbench/plugins/fr.ac6.mcu.externaltools.arm-none.linux64_1.17.0.201812190825/tools/compiler/bin/../lib/gcc/arm-none-eabi/7.3.1/thumb/v7e-m/fpv4-sp/hard/libgcc.a
LOAD /home/ssaa/Ac6SWB/SystemWorkbench/plugins/fr.ac6.mcu.externaltools.arm-none.linux64_1.17.0.201812190825/tools/compiler/bin/../lib/gcc/arm-none-eabi/7.3.1/../../../../arm-none-eabi/lib/thumb/v7e-m/fpv4-sp/hard/libc.a
END GROUP
LOAD /home/ssaa/Ac6SWB/SystemWorkbench/plugins/fr.ac6.mcu.externaltools.arm-none.linux64_1.17.0.201812190825/tools/compiler/bin/../lib/gcc/arm-none-eabi/7.3.1/thumb/v7e-m/fpv4-sp/hard/crtend.o
LOAD /home/ssaa/Ac6SWB/SystemWorkbench/plugins/fr.ac6.mcu.externaltools.arm-none.linux64_1.17.0.201812190825/tools/compiler/bin/../lib/gcc/arm-none-eabi/7.3.1/thumb/v7e-m/fpv4-sp/hard/crtn.o
                0x0000000020020000                _estack = 0x20020000
                0x0000000000000000                _Min_Heap_Size = 0x0
                0x0000000000000400                _Min_Stack_Size = 0x400

.isr_vector     0x0000000008000000      0x188
                0x0000000008000000                . = ALIGN (0x4)
 *(.isr_vector)
 .isr_vector    0x0000000008000000      0x188 startup/startup_stm32f407xx.o
                0x0000000008000000                g_pfnVectors
                0x0000000008000188                . = ALIGN (0x4)

.text           0x0000000008000188     0x1850
                0x0000000008000188                . = ALIGN (0x4)
 *(.text)
 .text          0x0000000008000188       0x40 /home/ssaa/Ac6SWB/SystemWorkbench/plugins/fr.ac6.mcu.externaltools.arm-none.linux64_1.17.0.201812190825/tools/compiler/bin/../lib/gcc/arm-none-eabi/7.3.1/thumb/v7e-m/fpv4-sp/hard/crtbegin.o
 .text          0x00000000080001c8      0x378 /home/ssaa/Ac6SWB/SystemWorkbench/plugins/fr.ac6.mcu.externaltools.arm-none.linux64_1.17.0.201812190825/tools/compiler/bin/../lib/gcc/arm-none-eabi/7.3.1/thumb/v7e-m/fpv4-sp/hard/libgcc.a(_arm_addsubdf3.o)
                0x00000000080001c8                __aeabi_drsub
                0x00000000080001d0                __aeabi_dsub
                0x00000000080001d0                __subdf3
                0x00000000080001d4                __adddf3
                0x00000000080001d4                __aeabi_dadd
                0x000000000800044c                __aeabi_ui2d
                0x000000000800044c                __floatunsidf
                0x000000000800046c                __floatsidf
                0x000000000800046c                __aeabi_i2d
                0x0000000008000490                __extendsfdf2
                0x0000000008000490                __aeabi_f2d
                0x00000000080004d4                __aeabi_ul2d
                0x00000000080004d4                __floatundidf
                0x00000000080004e4                __floatdidf
                0x00000000080004e4                __aeabi_l2d
 .text          0x0000000008000540      0x424 /home/ssaa/Ac6SWB/SystemWorkbench/plugins/fr.ac6.mcu.externaltools.arm-none.linux64_1.17.0.201812190825/tools/compiler/bin/../lib/gcc/arm-none-eabi/7.3.1/thumb/v7e-m/fpv4-sp/hard/libgcc.a(_arm_muldivdf3.o)
                0x0000000008000540                __aeabi_dmul
                0x0000000008000540                __muldf3
                0x0000000008000794                __aeabi_ddiv
                0x0000000008000794                __divdf3
 *(.text*)
 .text.HAL_Init
                0x0000000008000964       0x38 HAL_Driver/Src/stm32f4xx_hal.o
                0x0000000008000964                HAL_Init
 .text.HAL_InitTick
                0x000000000800099c       0x60 HAL_Driver/Src/stm32f4xx_hal.o
                0x000000000800099c                HAL_InitTick
 .text.HAL_IncTick
                0x00000000080009fc       0x28 HAL_Driver/Src/stm32f4xx_hal.o
                0x00000000080009fc                HAL_IncTick
 .text.HAL_GetTick
                0x0000000008000a24       0x18 HAL_Driver/Src/stm32f4xx_hal.o
                0x0000000008000a24                HAL_GetTick
 .text.HAL_Delay
                0x0000000008000a3c       0x44 HAL_Driver/Src/stm32f4xx_hal.o
                0x0000000008000a3c                HAL_Delay
 .text.__NVIC_SetPriorityGrouping
                0x0000000008000a80       0x48 HAL_Driver/Src/stm32f4xx_hal_cortex.o
 .text.__NVIC_GetPriorityGrouping
                0x0000000008000ac8       0x1c HAL_Driver/Src/stm32f4xx_hal_cortex.o
 .text.__NVIC_EnableIRQ
                0x0000000008000ae4       0x3c HAL_Driver/Src/stm32f4xx_hal_cortex.o
 .text.__NVIC_SetPriority
                0x0000000008000b20       0x54 HAL_Driver/Src/stm32f4xx_hal_cortex.o
 .text.NVIC_EncodePriority
                0x0000000008000b74       0x66 HAL_Driver/Src/stm32f4xx_hal_cortex.o
 *fill*         0x0000000008000bda        0x2 
 .text.SysTick_Config
                0x0000000008000bdc       0x44 HAL_Driver/Src/stm32f4xx_hal_cortex.o
 .text.HAL_NVIC_SetPriorityGrouping
                0x0000000008000c20       0x16 HAL_Driver/Src/stm32f4xx_hal_cortex.o
                0x0000000008000c20                HAL_NVIC_SetPriorityGrouping
 .text.HAL_NVIC_SetPriority
                0x0000000008000c36       0x38 HAL_Driver/Src/stm32f4xx_hal_cortex.o
                0x0000000008000c36                HAL_NVIC_SetPriority
 .text.HAL_NVIC_EnableIRQ
                0x0000000008000c6e       0x1c HAL_Driver/Src/stm32f4xx_hal_cortex.o
                0x0000000008000c6e                HAL_NVIC_EnableIRQ
 .text.HAL_SYSTICK_Config
                0x0000000008000c8a       0x18 HAL_Driver/Src/stm32f4xx_hal_cortex.o
                0x0000000008000c8a                HAL_SYSTICK_Config
 .text.HAL_SYSTICK_IRQHandler
                0x0000000008000ca2        0xc HAL_Driver/Src/stm32f4xx_hal_cortex.o
                0x0000000008000ca2                HAL_SYSTICK_IRQHandler
 .text.HAL_SYSTICK_Callback
                0x0000000008000cae        0xe HAL_Driver/Src/stm32f4xx_hal_cortex.o
                0x0000000008000cae                HAL_SYSTICK_Callback
 .text.HAL_GPIO_Init
                0x0000000008000cbc      0x334 HAL_Driver/Src/stm32f4xx_hal_gpio.o
                0x0000000008000cbc                HAL_GPIO_Init
 .text.HAL_GPIO_ReadPin
                0x0000000008000ff0       0x30 HAL_Driver/Src/stm32f4xx_hal_gpio.o
                0x0000000008000ff0                HAL_GPIO_ReadPin
 .text.HAL_GPIO_WritePin
                0x0000000008001020       0x32 HAL_Driver/Src/stm32f4xx_hal_gpio.o
                0x0000000008001020                HAL_GPIO_WritePin
 .text.HAL_MspInit
                0x0000000008001052        0xe HAL_Driver/Src/stm32f4xx_hal_msp_template.o
                0x0000000008001052                HAL_MspInit
 .text.BSP_LED_Init
                0x0000000008001060       0xf0 Utilities/STM32F4-Discovery/stm32f4_discovery.o
                0x0000000008001060                BSP_LED_Init
 .text.BSP_LED_On
                0x0000000008001150       0x34 Utilities/STM32F4-Discovery/stm32f4_discovery.o
                0x0000000008001150                BSP_LED_On
 .text.BSP_LED_Off
                0x0000000008001184       0x34 Utilities/STM32F4-Discovery/stm32f4_discovery.o
                0x0000000008001184                BSP_LED_Off
 .text.BSP_PB_Init
                0x00000000080011b8       0xb4 Utilities/STM32F4-Discovery/stm32f4_discovery.o
                0x00000000080011b8                BSP_PB_Init
 .text.BSP_PB_GetState
                0x000000000800126c       0x2c Utilities/STM32F4-Discovery/stm32f4_discovery.o
                0x000000000800126c                BSP_PB_GetState
 .text.drive_signal
                0x0000000008001298       0x76 src/drive_signal.o
                0x0000000008001298                drive_signal
 *fill*         0x000000000800130e        0x2 
 .text.main     0x0000000008001310      0x114 src/main.o
                0x0000000008001310                main
 .text.get_bacc_status
                0x0000000008001424       0x38 src/main.o
                0x0000000008001424                get_bacc_status
 .text.model_gen_step
                0x000000000800145c      0x1ac src/model_gen.o
                0x000000000800145c                model_gen_step
 .text.model_gen_initialize
                0x0000000008001608       0x78 src/model_gen.o
                0x0000000008001608                model_gen_initialize
 .text.rand     0x0000000008001680       0x64 src/rand.o
                0x0000000008001680                rand
 .text.SysTick_Handler
                0x00000000080016e4       0x10 src/stm32f4xx_it.o
                0x00000000080016e4                SysTick_Handler
 .text.SystemInit
                0x00000000080016f4       0x6c src/system_stm32f4xx.o
                0x00000000080016f4                SystemInit
 .text.Reset_Handler
                0x0000000008001760       0x50 startup/startup_stm32f407xx.o
                0x0000000008001760                Reset_Handler
 .text.Default_Handler
                0x00000000080017b0        0x2 startup/startup_stm32f407xx.o
                0x00000000080017b0                RTC_Alarm_IRQHandler
                0x00000000080017b0                HASH_RNG_IRQHandler
                0x00000000080017b0                EXTI2_IRQHandler
                0x00000000080017b0                TIM8_CC_IRQHandler
                0x00000000080017b0                DebugMon_Handler
                0x00000000080017b0                TIM1_CC_IRQHandler
                0x00000000080017b0                DMA2_Stream5_IRQHandler
                0x00000000080017b0                HardFault_Handler
                0x00000000080017b0                DMA1_Stream5_IRQHandler
                0x00000000080017b0                PVD_IRQHandler
                0x00000000080017b0                SDIO_IRQHandler
                0x00000000080017b0                TAMP_STAMP_IRQHandler
                0x00000000080017b0                PendSV_Handler
                0x00000000080017b0                NMI_Handler
                0x00000000080017b0                CAN2_RX1_IRQHandler
                0x00000000080017b0                EXTI3_IRQHandler
                0x00000000080017b0                TIM8_TRG_COM_TIM14_IRQHandler
                0x00000000080017b0                TIM1_UP_TIM10_IRQHandler
                0x00000000080017b0                TIM8_UP_TIM13_IRQHandler
                0x00000000080017b0                I2C3_ER_IRQHandler
                0x00000000080017b0                EXTI0_IRQHandler
                0x00000000080017b0                I2C2_EV_IRQHandler
                0x00000000080017b0                DMA1_Stream2_IRQHandler
                0x00000000080017b0                CAN1_RX0_IRQHandler
                0x00000000080017b0                FPU_IRQHandler
                0x00000000080017b0                OTG_HS_WKUP_IRQHandler
                0x00000000080017b0                UsageFault_Handler
                0x00000000080017b0                CAN2_SCE_IRQHandler
                0x00000000080017b0                DMA2_Stream2_IRQHandler
                0x00000000080017b0                SPI1_IRQHandler
                0x00000000080017b0                TIM6_DAC_IRQHandler
                0x00000000080017b0                TIM1_BRK_TIM9_IRQHandler
                0x00000000080017b0                DCMI_IRQHandler
                0x00000000080017b0                CAN2_RX0_IRQHandler
                0x00000000080017b0                DMA2_Stream3_IRQHandler
                0x00000000080017b0                USART6_IRQHandler
                0x00000000080017b0                USART3_IRQHandler
                0x00000000080017b0                CAN1_RX1_IRQHandler
                0x00000000080017b0                UART5_IRQHandler
                0x00000000080017b0                DMA2_Stream0_IRQHandler
                0x00000000080017b0                TIM4_IRQHandler
                0x00000000080017b0                I2C1_EV_IRQHandler
                0x00000000080017b0                DMA1_Stream6_IRQHandler
                0x00000000080017b0                DMA1_Stream1_IRQHandler
                0x00000000080017b0                UART4_IRQHandler
                0x00000000080017b0                TIM3_IRQHandler
                0x00000000080017b0                RCC_IRQHandler
                0x00000000080017b0                TIM8_BRK_TIM12_IRQHandler
                0x00000000080017b0                Default_Handler
                0x00000000080017b0                EXTI15_10_IRQHandler
                0x00000000080017b0                ADC_IRQHandler
                0x00000000080017b0                DMA1_Stream7_IRQHandler
                0x00000000080017b0                TIM7_IRQHandler
                0x00000000080017b0                CAN2_TX_IRQHandler
                0x00000000080017b0                TIM5_IRQHandler
                0x00000000080017b0                DMA2_Stream7_IRQHandler
                0x00000000080017b0                I2C3_EV_IRQHandler
                0x00000000080017b0                EXTI9_5_IRQHandler
                0x00000000080017b0                RTC_WKUP_IRQHandler
                0x00000000080017b0                ETH_WKUP_IRQHandler
                0x00000000080017b0                SPI2_IRQHandler
                0x00000000080017b0                OTG_HS_EP1_IN_IRQHandler
                0x00000000080017b0                MemManage_Handler
                0x00000000080017b0                DMA1_Stream0_IRQHandler
                0x00000000080017b0                CAN1_TX_IRQHandler
                0x00000000080017b0                SVC_Handler
                0x00000000080017b0                EXTI4_IRQHandler
                0x00000000080017b0                FSMC_IRQHandler
                0x00000000080017b0                ETH_IRQHandler
                0x00000000080017b0                OTG_HS_EP1_OUT_IRQHandler
                0x00000000080017b0                WWDG_IRQHandler
                0x00000000080017b0                TIM2_IRQHandler
                0x00000000080017b0                OTG_FS_WKUP_IRQHandler
                0x00000000080017b0                TIM1_TRG_COM_TIM11_IRQHandler
                0x00000000080017b0                OTG_HS_IRQHandler
                0x00000000080017b0                EXTI1_IRQHandler
                0x00000000080017b0                USART2_IRQHandler
                0x00000000080017b0                I2C2_ER_IRQHandler
                0x00000000080017b0                DMA2_Stream1_IRQHandler
                0x00000000080017b0                CAN1_SCE_IRQHandler
                0x00000000080017b0                FLASH_IRQHandler
                0x00000000080017b0                DMA2_Stream4_IRQHandler
                0x00000000080017b0                BusFault_Handler
                0x00000000080017b0                USART1_IRQHandler
                0x00000000080017b0                OTG_FS_IRQHandler
                0x00000000080017b0                SPI3_IRQHandler
                0x00000000080017b0                DMA1_Stream4_IRQHandler
                0x00000000080017b0                I2C1_ER_IRQHandler
                0x00000000080017b0                DMA2_Stream6_IRQHandler
                0x00000000080017b0                DMA1_Stream3_IRQHandler
 *fill*         0x00000000080017b2        0x2 
 .text.__libc_init_array
                0x00000000080017b4       0x48 /home/ssaa/Ac6SWB/SystemWorkbench/plugins/fr.ac6.mcu.externaltools.arm-none.linux64_1.17.0.201812190825/tools/compiler/bin/../lib/gcc/arm-none-eabi/7.3.1/../../../../arm-none-eabi/lib/thumb/v7e-m/fpv4-sp/hard/libc.a(lib_a-init.o)
                0x00000000080017b4                __libc_init_array
 .text.memset   0x00000000080017fc       0x94 /home/ssaa/Ac6SWB/SystemWorkbench/plugins/fr.ac6.mcu.externaltools.arm-none.linux64_1.17.0.201812190825/tools/compiler/bin/../lib/gcc/arm-none-eabi/7.3.1/../../../../arm-none-eabi/lib/thumb/v7e-m/fpv4-sp/hard/libc.a(lib_a-memset.o)
                0x00000000080017fc                memset
 .text.startup.register_fini
                0x0000000008001890       0x14 /home/ssaa/Ac6SWB/SystemWorkbench/plugins/fr.ac6.mcu.externaltools.arm-none.linux64_1.17.0.201812190825/tools/compiler/bin/../lib/gcc/arm-none-eabi/7.3.1/../../../../arm-none-eabi/lib/thumb/v7e-m/fpv4-sp/hard/libc.a(lib_a-__call_atexit.o)
 .text.atexit   0x00000000080018a4        0xc /home/ssaa/Ac6SWB/SystemWorkbench/plugins/fr.ac6.mcu.externaltools.arm-none.linux64_1.17.0.201812190825/tools/compiler/bin/../lib/gcc/arm-none-eabi/7.3.1/../../../../arm-none-eabi/lib/thumb/v7e-m/fpv4-sp/hard/libc.a(lib_a-atexit.o)
                0x00000000080018a4                atexit
 .text.__libc_fini_array
                0x00000000080018b0       0x34 /home/ssaa/Ac6SWB/SystemWorkbench/plugins/fr.ac6.mcu.externaltools.arm-none.linux64_1.17.0.201812190825/tools/compiler/bin/../lib/gcc/arm-none-eabi/7.3.1/../../../../arm-none-eabi/lib/thumb/v7e-m/fpv4-sp/hard/libc.a(lib_a-fini.o)
                0x00000000080018b0                __libc_fini_array
 .text.__retarget_lock_acquire_recursive
                0x00000000080018e4        0x4 /home/ssaa/Ac6SWB/SystemWorkbench/plugins/fr.ac6.mcu.externaltools.arm-none.linux64_1.17.0.201812190825/tools/compiler/bin/../lib/gcc/arm-none-eabi/7.3.1/../../../../arm-none-eabi/lib/thumb/v7e-m/fpv4-sp/hard/libc.a(lib_a-lock.o)
                0x00000000080018e4                __retarget_lock_acquire_recursive
 .text.__retarget_lock_release_recursive
                0x00000000080018e8        0x4 /home/ssaa/Ac6SWB/SystemWorkbench/plugins/fr.ac6.mcu.externaltools.arm-none.linux64_1.17.0.201812190825/tools/compiler/bin/../lib/gcc/arm-none-eabi/7.3.1/../../../../arm-none-eabi/lib/thumb/v7e-m/fpv4-sp/hard/libc.a(lib_a-lock.o)
                0x00000000080018e8                __retarget_lock_release_recursive
 .text.__register_exitproc
                0x00000000080018ec       0xc0 /home/ssaa/Ac6SWB/SystemWorkbench/plugins/fr.ac6.mcu.externaltools.arm-none.linux64_1.17.0.201812190825/tools/compiler/bin/../lib/gcc/arm-none-eabi/7.3.1/../../../../arm-none-eabi/lib/thumb/v7e-m/fpv4-sp/hard/libc.a(lib_a-__atexit.o)
                0x00000000080018ec                __register_exitproc
 *(.rodata)
 .rodata        0x00000000080019ac        0xd Utilities/STM32F4-Discovery/stm32f4_discovery.o
                0x00000000080019ac                GPIO_PIN
                0x00000000080019b4                BUTTON_PIN
                0x00000000080019b8                BUTTON_IRQn
 *(.rodata*)
 *fill*         0x00000000080019b9        0x3 
 .rodata._global_impure_ptr
                0x00000000080019bc        0x4 /home/ssaa/Ac6SWB/SystemWorkbench/plugins/fr.ac6.mcu.externaltools.arm-none.linux64_1.17.0.201812190825/tools/compiler/bin/../lib/gcc/arm-none-eabi/7.3.1/../../../../arm-none-eabi/lib/thumb/v7e-m/fpv4-sp/hard/libc.a(lib_a-impure.o)
                0x00000000080019bc                _global_impure_ptr
 *(.glue_7)
 .glue_7        0x00000000080019c0        0x0 linker stubs
 *(.glue_7t)
 .glue_7t       0x00000000080019c0        0x0 linker stubs
 *(.eh_frame)
 .eh_frame      0x00000000080019c0        0x0 /home/ssaa/Ac6SWB/SystemWorkbench/plugins/fr.ac6.mcu.externaltools.arm-none.linux64_1.17.0.201812190825/tools/compiler/bin/../lib/gcc/arm-none-eabi/7.3.1/thumb/v7e-m/fpv4-sp/hard/crtbegin.o
 *(.init)
 .init          0x00000000080019c0        0x4 /home/ssaa/Ac6SWB/SystemWorkbench/plugins/fr.ac6.mcu.externaltools.arm-none.linux64_1.17.0.201812190825/tools/compiler/bin/../lib/gcc/arm-none-eabi/7.3.1/thumb/v7e-m/fpv4-sp/hard/crti.o
                0x00000000080019c0                _init
 .init          0x00000000080019c4        0x8 /home/ssaa/Ac6SWB/SystemWorkbench/plugins/fr.ac6.mcu.externaltools.arm-none.linux64_1.17.0.201812190825/tools/compiler/bin/../lib/gcc/arm-none-eabi/7.3.1/thumb/v7e-m/fpv4-sp/hard/crtn.o
 *(.fini)
 .fini          0x00000000080019cc        0x4 /home/ssaa/Ac6SWB/SystemWorkbench/plugins/fr.ac6.mcu.externaltools.arm-none.linux64_1.17.0.201812190825/tools/compiler/bin/../lib/gcc/arm-none-eabi/7.3.1/thumb/v7e-m/fpv4-sp/hard/crti.o
                0x00000000080019cc                _fini
 .fini          0x00000000080019d0        0x8 /home/ssaa/Ac6SWB/SystemWorkbench/plugins/fr.ac6.mcu.externaltools.arm-none.linux64_1.17.0.201812190825/tools/compiler/bin/../lib/gcc/arm-none-eabi/7.3.1/thumb/v7e-m/fpv4-sp/hard/crtn.o
                0x00000000080019d8                . = ALIGN (0x4)
                0x00000000080019d8                _etext = .

.vfp11_veneer   0x00000000080019d8        0x0
 .vfp11_veneer  0x00000000080019d8        0x0 linker stubs

.v4_bx          0x00000000080019d8        0x0
 .v4_bx         0x00000000080019d8        0x0 linker stubs

.iplt           0x00000000080019d8        0x0
 .iplt          0x00000000080019d8        0x0 /home/ssaa/Ac6SWB/SystemWorkbench/plugins/fr.ac6.mcu.externaltools.arm-none.linux64_1.17.0.201812190825/tools/compiler/bin/../lib/gcc/arm-none-eabi/7.3.1/thumb/v7e-m/fpv4-sp/hard/crtbegin.o

.rel.dyn        0x00000000080019d8        0x0
 .rel.iplt      0x00000000080019d8        0x0 /home/ssaa/Ac6SWB/SystemWorkbench/plugins/fr.ac6.mcu.externaltools.arm-none.linux64_1.17.0.201812190825/tools/compiler/bin/../lib/gcc/arm-none-eabi/7.3.1/thumb/v7e-m/fpv4-sp/hard/crtbegin.o

.ARM.extab
 *(.ARM.extab* .gnu.linkonce.armextab.*)

.ARM            0x00000000080019d8        0x0
                0x00000000080019d8                __exidx_start = .
 *(.ARM.exidx*)
                0x00000000080019d8                __exidx_end = .

.preinit_array  0x00000000080019d8        0x0
                0x00000000080019d8                PROVIDE (__preinit_array_start = .)
 *(.preinit_array*)
                0x00000000080019d8                PROVIDE (__preinit_array_end = .)

.init_array     0x00000000080019d8        0x8
                0x00000000080019d8                PROVIDE (__init_array_start = .)
 *(SORT_BY_NAME(.init_array.*))
 .init_array.00000
                0x00000000080019d8        0x4 /home/ssaa/Ac6SWB/SystemWorkbench/plugins/fr.ac6.mcu.externaltools.arm-none.linux64_1.17.0.201812190825/tools/compiler/bin/../lib/gcc/arm-none-eabi/7.3.1/../../../../arm-none-eabi/lib/thumb/v7e-m/fpv4-sp/hard/libc.a(lib_a-__call_atexit.o)
 *(.init_array*)
 .init_array    0x00000000080019dc        0x4 /home/ssaa/Ac6SWB/SystemWorkbench/plugins/fr.ac6.mcu.externaltools.arm-none.linux64_1.17.0.201812190825/tools/compiler/bin/../lib/gcc/arm-none-eabi/7.3.1/thumb/v7e-m/fpv4-sp/hard/crtbegin.o
                0x00000000080019e0                PROVIDE (__init_array_end = .)

.fini_array     0x00000000080019e0        0x4
                0x00000000080019e0                PROVIDE (__fini_array_start = .)
 *(.fini_array*)
 .fini_array    0x00000000080019e0        0x4 /home/ssaa/Ac6SWB/SystemWorkbench/plugins/fr.ac6.mcu.externaltools.arm-none.linux64_1.17.0.201812190825/tools/compiler/bin/../lib/gcc/arm-none-eabi/7.3.1/thumb/v7e-m/fpv4-sp/hard/crtbegin.o
 *(SORT_BY_NAME(.fini_array.*))
                0x00000000080019e4                PROVIDE (__fini_array_end = .)
                0x00000000080019e4                _sidata = .

.data           0x0000000020000000      0x45c load address 0x00000000080019e4
                0x0000000020000000                . = ALIGN (0x4)
                0x0000000020000000                _sdata = .
 *(.data)
 .data          0x0000000020000000        0x5 HAL_Driver/Src/stm32f4xx_hal.o
                0x0000000020000000                uwTickPrio
                0x0000000020000004                uwTickFreq
 *fill*         0x0000000020000005        0x3 
 .data          0x0000000020000008       0x1c Utilities/STM32F4-Discovery/stm32f4_discovery.o
                0x0000000020000008                GPIO_PORT
                0x0000000020000018                BUTTON_PORT
                0x000000002000001c                I2cxTimeout
                0x0000000020000020                SpixTimeout
 .data          0x0000000020000024        0x2 src/rand.o
 *fill*         0x0000000020000026        0x2 
 .data          0x0000000020000028        0x4 src/system_stm32f4xx.o
                0x0000000020000028                SystemCoreClock
 *(.data*)
 *fill*         0x000000002000002c        0x4 
 .data.impure_data
                0x0000000020000030      0x428 /home/ssaa/Ac6SWB/SystemWorkbench/plugins/fr.ac6.mcu.externaltools.arm-none.linux64_1.17.0.201812190825/tools/compiler/bin/../lib/gcc/arm-none-eabi/7.3.1/../../../../arm-none-eabi/lib/thumb/v7e-m/fpv4-sp/hard/libc.a(lib_a-impure.o)
 .data.__atexit_recursive_mutex
                0x0000000020000458        0x4 /home/ssaa/Ac6SWB/SystemWorkbench/plugins/fr.ac6.mcu.externaltools.arm-none.linux64_1.17.0.201812190825/tools/compiler/bin/../lib/gcc/arm-none-eabi/7.3.1/../../../../arm-none-eabi/lib/thumb/v7e-m/fpv4-sp/hard/libc.a(lib_a-__call_atexit.o)
                0x0000000020000458                __atexit_recursive_mutex
                0x000000002000045c                . = ALIGN (0x4)
                0x000000002000045c                _edata = .

.igot.plt       0x000000002000045c        0x0 load address 0x0000000008001e40
 .igot.plt      0x000000002000045c        0x0 /home/ssaa/Ac6SWB/SystemWorkbench/plugins/fr.ac6.mcu.externaltools.arm-none.linux64_1.17.0.201812190825/tools/compiler/bin/../lib/gcc/arm-none-eabi/7.3.1/thumb/v7e-m/fpv4-sp/hard/crtbegin.o
                0x000000002000045c                . = ALIGN (0x4)

.bss            0x0000000020000460       0x84 load address 0x0000000008001e48
                0x0000000020000460                _sbss = .
                0x0000000020000460                __bss_start__ = _sbss
 *(.bss)
 .bss           0x0000000020000460       0x1c /home/ssaa/Ac6SWB/SystemWorkbench/plugins/fr.ac6.mcu.externaltools.arm-none.linux64_1.17.0.201812190825/tools/compiler/bin/../lib/gcc/arm-none-eabi/7.3.1/thumb/v7e-m/fpv4-sp/hard/crtbegin.o
 *fill*         0x000000002000047c        0x4 
 .bss           0x0000000020000480       0x38 src/main.o
 .bss           0x00000000200004b8        0x4 src/rand.o
 *(.bss*)
 *(COMMON)
 COMMON         0x00000000200004bc        0x4 HAL_Driver/Src/stm32f4xx_hal.o
                0x00000000200004bc                uwTick
 COMMON         0x00000000200004c0       0x21 /home/ssaa/Ac6SWB/SystemWorkbench/plugins/fr.ac6.mcu.externaltools.arm-none.linux64_1.17.0.201812190825/tools/compiler/bin/../lib/gcc/arm-none-eabi/7.3.1/../../../../arm-none-eabi/lib/thumb/v7e-m/fpv4-sp/hard/libc.a(lib_a-lock.o)
                0x00000000200004c0                __lock___atexit_recursive_mutex
                0x00000000200004c4                __lock___arc4random_mutex
                0x00000000200004c8                __lock___env_recursive_mutex
                0x00000000200004cc                __lock___sinit_recursive_mutex
                0x00000000200004d0                __lock___malloc_recursive_mutex
                0x00000000200004d4                __lock___at_quick_exit_mutex
                0x00000000200004d8                __lock___dd_hash_mutex
                0x00000000200004dc                __lock___tz_mutex
                0x00000000200004e0                __lock___sfp_recursive_mutex
                0x00000000200004e4                . = ALIGN (0x4)
 *fill*         0x00000000200004e1        0x3 
                0x00000000200004e4                _ebss = .
                0x00000000200004e4                __bss_end__ = _ebss

._user_heap_stack
                0x00000000200004e4      0x404 load address 0x0000000008001ecc
                0x00000000200004e8                . = ALIGN (0x8)
 *fill*         0x00000000200004e4        0x4 
                0x00000000200004e8                PROVIDE (end = .)
                [!provide]                        PROVIDE (_end = .)
                0x00000000200004e8                . = (. + _Min_Heap_Size)
                0x00000000200008e8                . = (. + _Min_Stack_Size)
 *fill*         0x00000000200004e8      0x400 
                0x00000000200008e8                . = ALIGN (0x8)

.memory_b1_text
 *(.mb1text)
 *(.mb1text*)
 *(.mb1rodata)
 *(.mb1rodata*)

/DISCARD/
 libc.a(*)
 libm.a(*)
 libgcc.a(*)

.ARM.attributes
                0x0000000000000000       0x30
 *(.ARM.attributes)
 .ARM.attributes
                0x0000000000000000       0x22 /home/ssaa/Ac6SWB/SystemWorkbench/plugins/fr.ac6.mcu.externaltools.arm-none.linux64_1.17.0.201812190825/tools/compiler/bin/../lib/gcc/arm-none-eabi/7.3.1/thumb/v7e-m/fpv4-sp/hard/crti.o
 .ARM.attributes
                0x0000000000000022       0x34 /home/ssaa/Ac6SWB/SystemWorkbench/plugins/fr.ac6.mcu.externaltools.arm-none.linux64_1.17.0.201812190825/tools/compiler/bin/../lib/gcc/arm-none-eabi/7.3.1/thumb/v7e-m/fpv4-sp/hard/crtbegin.o
 .ARM.attributes
                0x0000000000000056       0x39 HAL_Driver/Src/stm32f4xx_hal.o
 .ARM.attributes
                0x000000000000008f       0x39 HAL_Driver/Src/stm32f4xx_hal_cortex.o
 .ARM.attributes
                0x00000000000000c8       0x39 HAL_Driver/Src/stm32f4xx_hal_gpio.o
 .ARM.attributes
                0x0000000000000101       0x39 HAL_Driver/Src/stm32f4xx_hal_msp_template.o
 .ARM.attributes
                0x000000000000013a       0x39 Utilities/STM32F4-Discovery/stm32f4_discovery.o
 .ARM.attributes
                0x0000000000000173       0x39 src/drive_signal.o
 .ARM.attributes
                0x00000000000001ac       0x39 src/main.o
 .ARM.attributes
                0x00000000000001e5       0x39 src/model_gen.o
 .ARM.attributes
                0x000000000000021e       0x39 src/rand.o
 .ARM.attributes
                0x0000000000000257       0x39 src/stm32f4xx_it.o
 .ARM.attributes
                0x0000000000000290       0x39 src/system_stm32f4xx.o
 .ARM.attributes
                0x00000000000002c9       0x21 startup/startup_stm32f407xx.o
 .ARM.attributes
                0x00000000000002ea       0x22 /home/ssaa/Ac6SWB/SystemWorkbench/plugins/fr.ac6.mcu.externaltools.arm-none.linux64_1.17.0.201812190825/tools/compiler/bin/../lib/gcc/arm-none-eabi/7.3.1/thumb/v7e-m/fpv4-sp/hard/libgcc.a(_arm_addsubdf3.o)
 .ARM.attributes
                0x000000000000030c       0x22 /home/ssaa/Ac6SWB/SystemWorkbench/plugins/fr.ac6.mcu.externaltools.arm-none.linux64_1.17.0.201812190825/tools/compiler/bin/../lib/gcc/arm-none-eabi/7.3.1/thumb/v7e-m/fpv4-sp/hard/libgcc.a(_arm_muldivdf3.o)
 .ARM.attributes
                0x000000000000032e       0x34 /home/ssaa/Ac6SWB/SystemWorkbench/plugins/fr.ac6.mcu.externaltools.arm-none.linux64_1.17.0.201812190825/tools/compiler/bin/../lib/gcc/arm-none-eabi/7.3.1/../../../../arm-none-eabi/lib/thumb/v7e-m/fpv4-sp/hard/libc.a(lib_a-impure.o)
 .ARM.attributes
                0x0000000000000362       0x34 /home/ssaa/Ac6SWB/SystemWorkbench/plugins/fr.ac6.mcu.externaltools.arm-none.linux64_1.17.0.201812190825/tools/compiler/bin/../lib/gcc/arm-none-eabi/7.3.1/../../../../arm-none-eabi/lib/thumb/v7e-m/fpv4-sp/hard/libc.a(lib_a-init.o)
 .ARM.attributes
                0x0000000000000396       0x34 /home/ssaa/Ac6SWB/SystemWorkbench/plugins/fr.ac6.mcu.externaltools.arm-none.linux64_1.17.0.201812190825/tools/compiler/bin/../lib/gcc/arm-none-eabi/7.3.1/../../../../arm-none-eabi/lib/thumb/v7e-m/fpv4-sp/hard/libc.a(lib_a-memset.o)
 .ARM.attributes
                0x00000000000003ca       0x34 /home/ssaa/Ac6SWB/SystemWorkbench/plugins/fr.ac6.mcu.externaltools.arm-none.linux64_1.17.0.201812190825/tools/compiler/bin/../lib/gcc/arm-none-eabi/7.3.1/../../../../arm-none-eabi/lib/thumb/v7e-m/fpv4-sp/hard/libc.a(lib_a-__call_atexit.o)
 .ARM.attributes
                0x00000000000003fe       0x34 /home/ssaa/Ac6SWB/SystemWorkbench/plugins/fr.ac6.mcu.externaltools.arm-none.linux64_1.17.0.201812190825/tools/compiler/bin/../lib/gcc/arm-none-eabi/7.3.1/../../../../arm-none-eabi/lib/thumb/v7e-m/fpv4-sp/hard/libc.a(lib_a-atexit.o)
 .ARM.attributes
                0x0000000000000432       0x34 /home/ssaa/Ac6SWB/SystemWorkbench/plugins/fr.ac6.mcu.externaltools.arm-none.linux64_1.17.0.201812190825/tools/compiler/bin/../lib/gcc/arm-none-eabi/7.3.1/../../../../arm-none-eabi/lib/thumb/v7e-m/fpv4-sp/hard/libc.a(lib_a-fini.o)
 .ARM.attributes
                0x0000000000000466       0x34 /home/ssaa/Ac6SWB/SystemWorkbench/plugins/fr.ac6.mcu.externaltools.arm-none.linux64_1.17.0.201812190825/tools/compiler/bin/../lib/gcc/arm-none-eabi/7.3.1/../../../../arm-none-eabi/lib/thumb/v7e-m/fpv4-sp/hard/libc.a(lib_a-lock.o)
 .ARM.attributes
                0x000000000000049a       0x34 /home/ssaa/Ac6SWB/SystemWorkbench/plugins/fr.ac6.mcu.externaltools.arm-none.linux64_1.17.0.201812190825/tools/compiler/bin/../lib/gcc/arm-none-eabi/7.3.1/../../../../arm-none-eabi/lib/thumb/v7e-m/fpv4-sp/hard/libc.a(lib_a-__atexit.o)
 .ARM.attributes
                0x00000000000004ce       0x22 /home/ssaa/Ac6SWB/SystemWorkbench/plugins/fr.ac6.mcu.externaltools.arm-none.linux64_1.17.0.201812190825/tools/compiler/bin/../lib/gcc/arm-none-eabi/7.3.1/thumb/v7e-m/fpv4-sp/hard/crtn.o
OUTPUT(provva_2.elf elf32-littlearm)

.debug_info     0x0000000000000000     0x5c8e
 .debug_info    0x0000000000000000      0x921 HAL_Driver/Src/stm32f4xx_hal.o
 .debug_info    0x0000000000000921      0xdd6 HAL_Driver/Src/stm32f4xx_hal_cortex.o
 .debug_info    0x00000000000016f7      0x763 HAL_Driver/Src/stm32f4xx_hal_gpio.o
 .debug_info    0x0000000000001e5a      0x15e HAL_Driver/Src/stm32f4xx_hal_msp_template.o
 .debug_info    0x0000000000001fb8     0x1462 Utilities/STM32F4-Discovery/stm32f4_discovery.o
 .debug_info    0x000000000000341a      0xab0 src/drive_signal.o
 .debug_info    0x0000000000003eca      0xbaa src/main.o
 .debug_info    0x0000000000004a74      0xaf8 src/model_gen.o
 .debug_info    0x000000000000556c       0xd3 src/rand.o
 .debug_info    0x000000000000563f      0x12b src/stm32f4xx_it.o
 .debug_info    0x000000000000576a      0x502 src/system_stm32f4xx.o
 .debug_info    0x0000000000005c6c       0x22 startup/startup_stm32f407xx.o

.debug_abbrev   0x0000000000000000     0x119a
 .debug_abbrev  0x0000000000000000      0x1cb HAL_Driver/Src/stm32f4xx_hal.o
 .debug_abbrev  0x00000000000001cb      0x2fa HAL_Driver/Src/stm32f4xx_hal_cortex.o
 .debug_abbrev  0x00000000000004c5      0x1c9 HAL_Driver/Src/stm32f4xx_hal_gpio.o
 .debug_abbrev  0x000000000000068e       0x94 HAL_Driver/Src/stm32f4xx_hal_msp_template.o
 .debug_abbrev  0x0000000000000722      0x27a Utilities/STM32F4-Discovery/stm32f4_discovery.o
 .debug_abbrev  0x000000000000099c      0x1eb src/drive_signal.o
 .debug_abbrev  0x0000000000000b87      0x1f8 src/main.o
 .debug_abbrev  0x0000000000000d7f      0x1f2 src/model_gen.o
 .debug_abbrev  0x0000000000000f71       0x72 src/rand.o
 .debug_abbrev  0x0000000000000fe3       0x94 src/stm32f4xx_it.o
 .debug_abbrev  0x0000000000001077      0x111 src/system_stm32f4xx.o
 .debug_abbrev  0x0000000000001188       0x12 startup/startup_stm32f407xx.o

.debug_aranges  0x0000000000000000      0x478
 .debug_aranges
                0x0000000000000000       0xf0 HAL_Driver/Src/stm32f4xx_hal.o
 .debug_aranges
                0x00000000000000f0      0x118 HAL_Driver/Src/stm32f4xx_hal_cortex.o
 .debug_aranges
                0x0000000000000208       0x58 HAL_Driver/Src/stm32f4xx_hal_gpio.o
 .debug_aranges
                0x0000000000000260       0x38 HAL_Driver/Src/stm32f4xx_hal_msp_template.o
 .debug_aranges
                0x0000000000000298       0xd8 Utilities/STM32F4-Discovery/stm32f4_discovery.o
 .debug_aranges
                0x0000000000000370       0x20 src/drive_signal.o
 .debug_aranges
                0x0000000000000390       0x28 src/main.o
 .debug_aranges
                0x00000000000003b8       0x30 src/model_gen.o
 .debug_aranges
                0x00000000000003e8       0x20 src/rand.o
 .debug_aranges
                0x0000000000000408       0x20 src/stm32f4xx_it.o
 .debug_aranges
                0x0000000000000428       0x28 src/system_stm32f4xx.o
 .debug_aranges
                0x0000000000000450       0x28 startup/startup_stm32f407xx.o

.debug_ranges   0x0000000000000000      0x3c0
 .debug_ranges  0x0000000000000000       0xe0 HAL_Driver/Src/stm32f4xx_hal.o
 .debug_ranges  0x00000000000000e0      0x108 HAL_Driver/Src/stm32f4xx_hal_cortex.o
 .debug_ranges  0x00000000000001e8       0x48 HAL_Driver/Src/stm32f4xx_hal_gpio.o
 .debug_ranges  0x0000000000000230       0x28 HAL_Driver/Src/stm32f4xx_hal_msp_template.o
 .debug_ranges  0x0000000000000258       0xc8 Utilities/STM32F4-Discovery/stm32f4_discovery.o
 .debug_ranges  0x0000000000000320       0x10 src/drive_signal.o
 .debug_ranges  0x0000000000000330       0x18 src/main.o
 .debug_ranges  0x0000000000000348       0x20 src/model_gen.o
 .debug_ranges  0x0000000000000368       0x10 src/rand.o
 .debug_ranges  0x0000000000000378       0x10 src/stm32f4xx_it.o
 .debug_ranges  0x0000000000000388       0x18 src/system_stm32f4xx.o
 .debug_ranges  0x00000000000003a0       0x20 startup/startup_stm32f407xx.o

.debug_macro    0x0000000000000000     0x2fb4
 .debug_macro   0x0000000000000000      0x3b5 HAL_Driver/Src/stm32f4xx_hal.o
 .debug_macro   0x00000000000003b5      0x355 HAL_Driver/Src/stm32f4xx_hal_cortex.o
 .debug_macro   0x000000000000070a      0x38b HAL_Driver/Src/stm32f4xx_hal_gpio.o
 .debug_macro   0x0000000000000a95      0x355 HAL_Driver/Src/stm32f4xx_hal_msp_template.o
 .debug_macro   0x0000000000000dea      0x382 Utilities/STM32F4-Discovery/stm32f4_discovery.o
 .debug_macro   0x000000000000116c      0x1e1 Utilities/STM32F4-Discovery/stm32f4_discovery.o
 .debug_macro   0x000000000000134d      0x485 src/drive_signal.o
 .debug_macro   0x00000000000017d2       0x10 src/drive_signal.o
 .debug_macro   0x00000000000017e2       0x35 src/drive_signal.o
 .debug_macro   0x0000000000001817       0x5e src/drive_signal.o
 .debug_macro   0x0000000000001875       0x40 src/drive_signal.o
 .debug_macro   0x00000000000018b5       0x1c src/drive_signal.o
 .debug_macro   0x00000000000018d1       0xd9 src/drive_signal.o
 .debug_macro   0x00000000000019aa       0x54 src/drive_signal.o
 .debug_macro   0x00000000000019fe      0x1e7 src/drive_signal.o
 .debug_macro   0x0000000000001be5      0x541 src/main.o
 .debug_macro   0x0000000000002126       0x16 src/main.o
 .debug_macro   0x000000000000213c       0x10 src/main.o
 .debug_macro   0x000000000000214c      0x4cc src/main.o
 .debug_macro   0x0000000000002618      0x151 src/model_gen.o
 .debug_macro   0x0000000000002769       0x1c src/model_gen.o
 .debug_macro   0x0000000000002785       0xb9 src/rand.o
 .debug_macro   0x000000000000283e       0x3a src/rand.o
 .debug_macro   0x0000000000002878       0x82 src/rand.o
 .debug_macro   0x00000000000028fa      0x35f src/stm32f4xx_it.o
 .debug_macro   0x0000000000002c59      0x35b src/system_stm32f4xx.o

.debug_line     0x0000000000000000     0x6b6d
 .debug_line    0x0000000000000000      0xb72 HAL_Driver/Src/stm32f4xx_hal.o
 .debug_line    0x0000000000000b72      0xc9a HAL_Driver/Src/stm32f4xx_hal_cortex.o
 .debug_line    0x000000000000180c      0xb55 HAL_Driver/Src/stm32f4xx_hal_gpio.o
 .debug_line    0x0000000000002361      0x9b7 HAL_Driver/Src/stm32f4xx_hal_msp_template.o
 .debug_line    0x0000000000002d18      0xbe4 Utilities/STM32F4-Discovery/stm32f4_discovery.o
 .debug_line    0x00000000000038fc      0xade src/drive_signal.o
 .debug_line    0x00000000000043da      0xbde src/main.o
 .debug_line    0x0000000000004fb8      0x47f src/model_gen.o
 .debug_line    0x0000000000005437      0x378 src/rand.o
 .debug_line    0x00000000000057af      0x9a2 src/stm32f4xx_it.o
 .debug_line    0x0000000000006151      0x99d src/system_stm32f4xx.o
 .debug_line    0x0000000000006aee       0x7f startup/startup_stm32f407xx.o

.debug_str      0x0000000000000000    0xeaeb6
 .debug_str     0x0000000000000000    0xe3750 HAL_Driver/Src/stm32f4xx_hal.o
                                      0xe3b07 (size before relaxing)
 .debug_str     0x00000000000e3750      0x3e5 HAL_Driver/Src/stm32f4xx_hal_cortex.o
                                      0xe3882 (size before relaxing)
 .debug_str     0x00000000000e3b35      0x27a HAL_Driver/Src/stm32f4xx_hal_gpio.o
                                      0xe3205 (size before relaxing)
 .debug_str     0x00000000000e3daf       0x51 HAL_Driver/Src/stm32f4xx_hal_msp_template.o
                                      0xe2e83 (size before relaxing)
 .debug_str     0x00000000000e3e00     0x1753 Utilities/STM32F4-Discovery/stm32f4_discovery.o
                                      0xe4cb6 (size before relaxing)
 .debug_str     0x00000000000e5553     0x3129 src/drive_signal.o
                                      0xe6c81 (size before relaxing)
 .debug_str     0x00000000000e867c     0x2540 src/main.o
                                      0xe90b6 (size before relaxing)
 .debug_str     0x00000000000eabbc      0x215 src/model_gen.o
                                       0x66b9 (size before relaxing)
 .debug_str     0x00000000000eadd1       0x13 src/rand.o
                                       0x523c (size before relaxing)
 .debug_str     0x00000000000eade4       0x38 src/stm32f4xx_it.o
                                      0xe2e50 (size before relaxing)
 .debug_str     0x00000000000eae1c       0x6b src/system_stm32f4xx.o
                                      0xe2fd3 (size before relaxing)
 .debug_str     0x00000000000eae87       0x2f startup/startup_stm32f407xx.o
                                         0x53 (size before relaxing)

.comment        0x0000000000000000       0x7f
 .comment       0x0000000000000000       0x7f HAL_Driver/Src/stm32f4xx_hal.o
                                         0x80 (size before relaxing)
 .comment       0x000000000000007f       0x80 HAL_Driver/Src/stm32f4xx_hal_cortex.o
 .comment       0x000000000000007f       0x80 HAL_Driver/Src/stm32f4xx_hal_gpio.o
 .comment       0x000000000000007f       0x80 HAL_Driver/Src/stm32f4xx_hal_msp_template.o
 .comment       0x000000000000007f       0x80 Utilities/STM32F4-Discovery/stm32f4_discovery.o
 .comment       0x000000000000007f       0x80 src/drive_signal.o
 .comment       0x000000000000007f       0x80 src/main.o
 .comment       0x000000000000007f       0x80 src/model_gen.o
 .comment       0x000000000000007f       0x80 src/rand.o
 .comment       0x000000000000007f       0x80 src/stm32f4xx_it.o
 .comment       0x000000000000007f       0x80 src/system_stm32f4xx.o

.debug_frame    0x0000000000000000     0x11f0
 .debug_frame   0x0000000000000000      0x374 HAL_Driver/Src/stm32f4xx_hal.o
 .debug_frame   0x0000000000000374      0x498 HAL_Driver/Src/stm32f4xx_hal_cortex.o
 .debug_frame   0x000000000000080c      0x14c HAL_Driver/Src/stm32f4xx_hal_gpio.o
 .debug_frame   0x0000000000000958       0x90 HAL_Driver/Src/stm32f4xx_hal_msp_template.o
 .debug_frame   0x00000000000009e8      0x350 Utilities/STM32F4-Discovery/stm32f4_discovery.o
 .debug_frame   0x0000000000000d38       0x34 src/drive_signal.o
 .debug_frame   0x0000000000000d6c       0x54 src/main.o
 .debug_frame   0x0000000000000dc0       0x88 src/model_gen.o
 .debug_frame   0x0000000000000e48       0x30 src/rand.o
 .debug_frame   0x0000000000000e78       0x2c src/stm32f4xx_it.o
 .debug_frame   0x0000000000000ea4       0x58 src/system_stm32f4xx.o
 .debug_frame   0x0000000000000efc       0xac /home/ssaa/Ac6SWB/SystemWorkbench/plugins/fr.ac6.mcu.externaltools.arm-none.linux64_1.17.0.201812190825/tools/compiler/bin/../lib/gcc/arm-none-eabi/7.3.1/thumb/v7e-m/fpv4-sp/hard/libgcc.a(_arm_addsubdf3.o)
 .debug_frame   0x0000000000000fa8       0x50 /home/ssaa/Ac6SWB/SystemWorkbench/plugins/fr.ac6.mcu.externaltools.arm-none.linux64_1.17.0.201812190825/tools/compiler/bin/../lib/gcc/arm-none-eabi/7.3.1/thumb/v7e-m/fpv4-sp/hard/libgcc.a(_arm_muldivdf3.o)
 .debug_frame   0x0000000000000ff8       0x2c /home/ssaa/Ac6SWB/SystemWorkbench/plugins/fr.ac6.mcu.externaltools.arm-none.linux64_1.17.0.201812190825/tools/compiler/bin/../lib/gcc/arm-none-eabi/7.3.1/../../../../arm-none-eabi/lib/thumb/v7e-m/fpv4-sp/hard/libc.a(lib_a-init.o)
 .debug_frame   0x0000000000001024       0x38 /home/ssaa/Ac6SWB/SystemWorkbench/plugins/fr.ac6.mcu.externaltools.arm-none.linux64_1.17.0.201812190825/tools/compiler/bin/../lib/gcc/arm-none-eabi/7.3.1/../../../../arm-none-eabi/lib/thumb/v7e-m/fpv4-sp/hard/libc.a(lib_a-memset.o)
 .debug_frame   0x000000000000105c       0x5c /home/ssaa/Ac6SWB/SystemWorkbench/plugins/fr.ac6.mcu.externaltools.arm-none.linux64_1.17.0.201812190825/tools/compiler/bin/../lib/gcc/arm-none-eabi/7.3.1/../../../../arm-none-eabi/lib/thumb/v7e-m/fpv4-sp/hard/libc.a(lib_a-__call_atexit.o)
 .debug_frame   0x00000000000010b8       0x20 /home/ssaa/Ac6SWB/SystemWorkbench/plugins/fr.ac6.mcu.externaltools.arm-none.linux64_1.17.0.201812190825/tools/compiler/bin/../lib/gcc/arm-none-eabi/7.3.1/../../../../arm-none-eabi/lib/thumb/v7e-m/fpv4-sp/hard/libc.a(lib_a-atexit.o)
 .debug_frame   0x00000000000010d8       0x34 /home/ssaa/Ac6SWB/SystemWorkbench/plugins/fr.ac6.mcu.externaltools.arm-none.linux64_1.17.0.201812190825/tools/compiler/bin/../lib/gcc/arm-none-eabi/7.3.1/../../../../arm-none-eabi/lib/thumb/v7e-m/fpv4-sp/hard/libc.a(lib_a-fini.o)
 .debug_frame   0x000000000000110c       0xb0 /home/ssaa/Ac6SWB/SystemWorkbench/plugins/fr.ac6.mcu.externaltools.arm-none.linux64_1.17.0.201812190825/tools/compiler/bin/../lib/gcc/arm-none-eabi/7.3.1/../../../../arm-none-eabi/lib/thumb/v7e-m/fpv4-sp/hard/libc.a(lib_a-lock.o)
 .debug_frame   0x00000000000011bc       0x34 /home/ssaa/Ac6SWB/SystemWorkbench/plugins/fr.ac6.mcu.externaltools.arm-none.linux64_1.17.0.201812190825/tools/compiler/bin/../lib/gcc/arm-none-eabi/7.3.1/../../../../arm-none-eabi/lib/thumb/v7e-m/fpv4-sp/hard/libc.a(lib_a-__atexit.o)
